:100000000C9499000C94C1000C94C1000C94C10094
:100010000C94C1000C94C1000C94C1000C94C1005C
:100020000C94C1000C94C1000C94C1000C94C1004C
:100030000C94C1000C94C1000C94C1000C94C1003C
:100040000C94BB040C94C1000C9489040C946304BC
:100050000C94C1000C94C1000C94C1000C94C1001C
:100060000C9405050C94C10008000000BE922449C0
:10007000123EABAAAA2ABECDCCCC4C3E00000080DA
:10008000BEABAAAAAA3E00000000BF000000803F4D
:100090000000000000084178D3BB4387D1133D190D
:1000A0000E3CC3BD4282AD2B3E68EC8276BED98F3A
:1000B000E1A93E4C80EFFFBE01C4FF7F3F0000007E
:1000C000000007634236B79BD8A71A39685618AEA6
:1000D000BAAB558C1D3CB7CC5763BD6DEDFD753E7D
:1000E000F6177231BF000000803F000000002500BD
:1000F00028002B0004040404040404040202020285
:1001000002020303030303030102040810204080DA
:100110000102040810200102040810200000000859
:1001200000020100000304070000000000000000BE
:100130004D1011241FBECFEFD8E0DEBFCDBF24E0AD
:10014000AAECB2E001C01D92A836B207E1F712E0B6
:10015000A0E0B1E0EEE9F0E302C005900D92AA3C08
:10016000B107D9F710E0C9E9D0E004C02197FE013A
:100170000E943B16C839D107C9F70E94B5080C94F4
:100180004D180C940000FC01538D448D252F30E058
:10019000842F90E0821B930B541710F0CF96089594
:1001A00001970895FC01918D828D981761F0828DE1
:1001B000DF01A80FB11D5D968C91928D9F5F9F739B
:1001C000928F90E008958FEF9FEF0895FC01918D3D
:1001D000828D981731F0828DE80FF11D858D90E0AA
:1001E00008958FEF9FEF0895FC01918D228D892F47
:1001F00090E0805C9F4F821B91098F73992708952F
:1002000087E893E00E94F40021E0892B09F420E0C4
:10021000822F0895FC01848DDF01A80FB11DA35A20
:10022000BF4F2C91848D90E001968F739927848F16
:10023000A689B7892C93A089B1898C9180648C930D
:10024000938D848D981306C00288F389E02D8081F8
:100250008F7D80830895EF92FF920F931F93CF932A
:10026000DF93EC0181E0888F9B8D8C8D981305C006
:10027000E889F989808185FD24C0F62E0B8D10E078
:100280000F5F1F4F0F731127E02E8C8DE8120CC0EB
:100290000FB607FCFACFE889F989808185FFF5CF91
:1002A000CE010E940A01F1CF8B8DFE01E80FF11DF6
:1002B000E35AFF4FF0820B8FEA89FB8980818062CD
:1002C00007C0EE89FF896083E889F98980818064AD
:1002D000808381E090E0DF91CF911F910F91FF909B
:1002E000EF900895CF93DF93EC01888D8823C9F0B8
:1002F000EA89FB89808185FD05C0A889B9898C912F
:1003000086FD0FC00FB607FCF5CF808185FFF2CFC9
:10031000A889B9898C9185FFEDCFCE010E940A0191
:10032000E7CFDF91CF91089580E090E0892B29F00D
:100330000E94000181110C940000089590E0FC01DE
:10034000E45EFE4F3491FC01E85FFE4F2491FC0116
:10035000EC50FF4FE491EE2309F43BC0332339F115
:10036000333091F038F43130A9F0323001F584B5F2
:100370008F7D12C0373091F03830A1F03430B9F4AD
:10038000809180008F7D03C0809180008F77809363
:1003900080000DC084B58F7784BD09C08091B00006
:1003A0008F7703C08091B0008F7D8093B000F0E024
:1003B000EE0FFF1FE651FF4FA591B4918FB7F89450
:1003C000EC91611103C020952E2301C02E2B2C939C
:1003D0008FBF08953FB7F89480913603909137030B
:1003E000A0913803B091390326B5A89B05C02F3FD3
:1003F00019F00196A11DB11D3FBFBA2FA92F982F4B
:100400008827820F911DA11DB11DBC01CD0142E0C5
:10041000660F771F881F991F4A95D1F708958F920D
:100420009F92AF92BF92CF92DF92EF92FF926B01B9
:100430007C010E94EA014B015C01C114D104E1047A
:10044000F104F1F00E94EA01DC01CB01881999095D
:10045000AA09BB09883E9340A105B10570F321E0CC
:10046000C21AD108E108F10888EE880E83E0981ED0
:10047000A11CB11CC114D104E104F10419F7DDCFB2
:10048000FF90EF90DF90CF90BF90AF909F908F90B4
:10049000089580913A0390E020913B03821B9109DB
:1004A00008950F931F93CF93DF93EC018A81982FC8
:1004B0009295990F907E8E81880F880F892B0885E1
:1004C000082B8A85982F9295990F907E8C85880F9E
:1004D000880F892B1E85182BE881F9810280F38112
:1004E000E02D4C8162EFCE010995E881F98102800F
:1004F000F381E02D402F64EFCE010995E881F98169
:100500000280F381E02D412F65EFCE01DF91CF9185
:100510001F910F910994FF920F931F93CF93DF9335
:100520001F92CDB7DEB78C01DC01ED91FC91048008
:10053000F581E02D21E0AE014F5F5F4F60ED099541
:100540008981883541F0803671F480E690E0F801C9
:1005500091AB80AB0DC088E590E0D801D1969C931B
:100560008E93D09705C0F80111AA10AAF12C3BC0B8
:10057000D801ED91FC910480F581E02D26E0A801E1
:10058000405F5F4F68E8C8010995F82ED801ED91EA
:10059000FC910480F581E02D22E1A8014A5E5F4FC5
:1005A0006EE8C8010995F822D801ED91FC9104800C
:1005B000F581E02D21E0A801485D5F4F61EAC801A7
:1005C0000995F822D801ED91FC910480F581E02D88
:1005D00027E0A801475D5F4F61EEC8010995F82249
:1005E000C8010E945102F801F2AA8F2D0F90DF91ED
:1005F000CF911F910F91FF90089585ED8093BC00DE
:100600008091BC0084FDFCCF10926203089540915C
:10061000EC02262F30E0240F311D21323105DCF4AD
:10062000209162032430C9F4FC0180E090E0861739
:1006300058F43091EC022191DC01A653BD4FA30F79
:10064000B11D2C930196F3CF8091EC02680F60935B
:10065000EC0280E0089581E0089582E00895089515
:10066000E0913B0380913A03E81730F4F0E0EF5E4D
:10067000FC4F808190E008958FEF9FEF0895909157
:100680003B0380913A03981750F4E92FF0E0EF5EB6
:10069000FC4F208130E09F5F90933B0302C02FEF1F
:1006A0003FEFC9010895CF92DF92EF92FF920F932F
:1006B0001F93CF93DF937C01262F972F8A01809180
:1006C0006303882391F0C62FD72F6E01C40ED51E69
:1006D000CC15DD0571F06991D701ED91FC91019088
:1006E000F081E02DC7010995F3CF642F822F0E947E
:1006F0000703C801DF91CF911F910F91FF90EF90F9
:10070000DF90CF900895CF93DF931F92CDB7DEB7E0
:100710006983209163032223D1F020918603203244
:1007200040F021E030E0FC013383228380E090E060
:1007300015C080916403E82FF0E0EB59FC4F9981DC
:1007400090838F5F809364038093860305C061E08C
:10075000CE0101960E94070381E090E00F90DF91A7
:10076000CF910895089580E090E008950E94381890
:10077000CF92DF92EF92FF920F931F93CF93DF936D
:100780007C018A01D22FFC0183A991E0909363033D
:1007900080938503109264031092860384E294E0B0
:1007A0000E94830381E00E948E06F70183A9909145
:1007B00062039111FCCFCD2FD13208F0C0E291E05D
:1007C00090936203909361032FEF20936003109244
:1007D0005F032C0F20935E0390933D0390913D03A4
:1007E000880F892B80933D0380913C03813061F415
:1007F00010923C0380913D038093BB008091BC002C
:1008000083FDF8CF85EC01C085EE8093BC0080911C
:1008100062038130E1F380915F038C1710F4C09183
:100820005F03AEE3B3E021E133E0F9018E2F821BD9
:100830008C1718F48D918193F9CF10923B03C093DC
:100840003A0390E080913B03C81771F0FF24F394C2
:10085000F90E6801C90ED11C84E294E00E943F03A6
:10086000F60180839F2DEECF81E09D1380E0DF9124
:10087000CF911F910F91FF90EF90DF90CF9008954F
:10088000CF93DF931F92CDB7DEB7FC0183A991E030
:100890009093630380938503109264031092860300
:1008A00084E294E049830E9483034981642F84E2B7
:1008B00094E00E94830381E00E948E0681E00F9005
:1008C000DF91CF9108951F920F920FB60F921124CE
:1008D0002F933F934F935F936F937F938F939F9348
:1008E000AF93BF93EF93FF9387E893E00E940A01D1
:1008F000FF91EF91BF91AF919F918F917F916F91F8
:100900005F914F913F912F910F900FBE0F901F90CD
:1009100018951F920F920FB60F9211242F938F9359
:100920009F93EF93FF93E0919703F0919803808159
:10093000E0919D03F0919E0382FD12C09081809111
:10094000A0038F5F8F732091A103821751F0E09174
:10095000A003F0E0E957FC4F958F8093A00301C0FE
:100960008081FF91EF919F918F912F910F900FBEFA
:100970000F901F9018951F920F920FB60F9211248F
:100980002F933F938F939F93AF93BF9380913203A5
:1009900090913303A0913403B0913503309131032A
:1009A00023E0230F2D3720F40196A11DB11D05C0B2
:1009B00026E8230F0296A11DB11D209331038093D9
:1009C000320390933303A0933403B09335038091A3
:1009D000360390913703A0913803B0913903019603
:1009E000A11DB11D8093360390933703A093380364
:1009F000B0933903BF91AF919F918F913F912F9108
:100A00000F900FBE0F901F9018951F920F920FB668
:100A10000F9211242F933F934F935F936F937F9384
:100A20008F939F93AF93BF93EF93FF938091B90000
:100A3000887F803609F49CC068F5883209F45BC071
:100A400090F4803109F454C038F4882309F4F6C0D6
:100A5000883009F44DC0F6C0883109F44CC08032AA
:100A600009F45DC0EFC0803409F468C048F48033F5
:100A700009F455C0883309F0E5C080936003D8C0FD
:100A8000803509F44FC0883509F45DC0883409F019
:100A9000D9C0D6C0883909F4C7C0A8F4883709F48A
:100AA00067C038F4883609F463C0803709F460C041
:100AB000C9C0883809F4B8C0803909F45FC08038EB
:100AC00009F0C0C05BC0803B09F486C038F4803AAE
:100AD00009F466C0883A09F47FC0B4C0803C09F4C8
:100AE000A7C0883C09F4A4C0883B09F48AC0AAC006
:100AF00080913D0310C090915F0380915E03981731
:100B000070F5E0915F0381E08E0F80935F03F0E06A
:100B1000E25CFC4F80818093BB0085EC86C08093B3
:100B200060038EC0E0915F0381E08E0F80935F03CE
:100B30008091BB00F0E0E25CFC4F808390915F030A
:100B400080915E036EC0E0915F0381E08E0F809321
:100B50005F038091BB00F0E0E25CFC4F80838091FA
:100B6000610381116DC081E080933C0384EA61C020
:100B700083E08093620310921003CFCF8091100323
:100B8000803208F051C0E091100381E08E0F809315
:100B900010038091BB00F0E0E051FD4F8083BDCF9A
:100BA00085EC8093BC001092620380911003803228
:100BB00030F4E0911003F0E0E051FD4F10826091BD
:100BC000100370E0E091EE02F091EF0280EF92E00E
:100BD00009951092100336C084E08093620310924E
:100BE000ED021092EC02E091EA02F091EB0209951D
:100BF0008091EC02811105C081E08093EC0210929B
:100C0000CA02E091ED0281E08E0F8093ED02F0E0E8
:100C1000E653FD4F80818093BB009091ED0280915F
:100C2000EC02981708F479CF85E88093BC000AC0DD
:100C300085EC8093BC001092620304C010926003A4
:100C40000E94FD02FF91EF91BF91AF919F918F9113
:100C50007F916F915F914F913F912F910F900FBEB8
:100C60000F901F901895CF92DF92EF92FF920F9303
:100C70001F93CF93DF936C017A018B01C0E0D0E02A
:100C8000CE15DF0589F0D8016D918D01D601ED916A
:100C9000FC910190F081E02DC6010995892B11F49A
:100CA0007E0102C02196ECCFC701DF91CF911F9149
:100CB0000F91FF90EF90DF90CF9008950F931F93C7
:100CC000CF93DF93EC0188819981009729F02A81E5
:100CD0003B812617370788F48B016F5F7F4F0E9497
:100CE0006E17009761F0998388831B830A832C8198
:100CF0003D81232B11F4FC01108281E001C080E0D2
:100D0000DF91CF911F910F910895FC01448155818E
:100D10006081718187E893E00C943306382F20912D
:100D2000860390918503213208F049C080916203C7
:100D30008111FCCF42E040936203309361033FEFA7
:100D40003093600310925F0320935E03A5E6B3E047
:100D50004EE353E0FA013E2F341B321718F43D9155
:100D60003193F9CF10923D0320913D03990F922BBF
:100D700090933D0390913C03913061F410923C03B9
:100D800090913D039093BB009091BC0093FDF8CFF0
:100D900095EC01C095EE9093BC0090916203923067
:100DA000E1F3909160039F3F79F08091600380327E
:100DB00041F080916003803331F084E005C081E030
:100DC00003C082E001C083E01092640310928603A6
:100DD000109263030895EF92FF920F931F93CF93A6
:100DE000DF93EC01FB0184819581E080F1800C812F
:100DF0001D81E114F104B1F0009701F1080F191FF2
:100E0000B801CE010E945E06882361F028813981F5
:100E10008C819D81B701820F931F0E9446181D830C
:100E20000C830CC088819981009711F00E94D6161E
:100E3000198218821D821C821B821A82CE01DF91C8
:100E4000CF911F910F91FF90EF900895EF92FF9235
:100E50000F931F93CF93DF93EC01198218821B82AB
:100E60001A821D821C826115710549F18B01FB01FB
:100E700001900020E9F731977F01E61AF70AB701E0
:100E80000E945E062881398181110DC0211531052E
:100E900019F0C9010E94D616198218821D821C827F
:100EA0001B821A820CC0FD82EC82B801C901DF915D
:100EB000CF911F910F91FF90EF900C944618DF9106
:100EC000CF911F910F91FF90EF90089561157105DB
:100ED00079F0FB0101900020E9F73197AF01461B43
:100EE000570BDC01ED91FC910280F381E02D099418
:100EF00080E090E00895CF93DF93BC0187E893E012
:100F00000E946607EC016AEB72E087E893E00E94BA
:100F100066078C0F9D1FDF91CF9108954F925F92CE
:100F20006F927F92EF92FF920F931F93CF93DF9375
:100F3000CDB7DEB7A1970FB6F894DEBF0FBECDBF19
:100F40007C01FA01CB0119A2223008F42AE08E01BB
:100F50000F5D1F4F422E512C612C712CBF01A3013C
:100F600092010E94C314F901CA01015011096A30AB
:100F700014F4605D01C0695CD8016C93232B242BB1
:100F8000252B61F7B801C7010E946607A1960FB62D
:100F9000F894DEBF0FBECDBFDF91CF911F910F91AF
:100FA000FF90EF907F906F905F904F9008958F9299
:100FB0009F92AF92BF92CF92DF92EF92FF920F93E8
:100FC0001F93CF93DF93EC016A017B019A01AB0180
:100FD000C701B6010E94C913882319F06DEB72E0B6
:100FE00027C046015701E894B7F82FEF3FEF4FE7CE
:100FF0005FE7C501B4010E94C91381110DC02FEF35
:101000003FEF4FE75FE7C501B4010E94A11018163A
:101010001CF461EC72E00CC02FEF3FEF4FE75FE490
:10102000C701B6010E94241318168CF465EC72E017
:10103000CE01DF91CF911F910F91FF90EF90DF9044
:10104000CF90BF90AF909F908F900C9466072FEF3A
:101050003FEF4FE75FECC701B6010E94A11087FD8B
:10106000E5CF20E030E0A901C701B6010E94A11040
:1010700087FF0EC0E881F9810190F081E02D6DE2DB
:10108000CE0109958C01F7FAF094F7F8F09402C0BC
:1010900000E010E02AE037ED43EA5BE3C701B60168
:1010A0000E9417126B017C010E94F5124B015C013A
:1010B0000E94A6109B01AC01C701B6010E94161246
:1010C0006B017C012AE0B501A401CE010E948E07CC
:1010D000080F191FE881F9810190F081E02D6EE27F
:1010E000CE010995080F191F20E030E040E251E4DD
:1010F000C701B6010E9407114B015C010E94F51265
:101100006B01E12CF12C2AE0B701A601CE010E946F
:101110008E07080F191FC701B6010E94A6109B0178
:10112000AC01C501B4010E94161220E030E040E29B
:1011300051E40E9407110E94F512AB0160E070E0DB
:101140002AE0CE010E948E07800F911FDF91CF9180
:101150001F910F91FF90EF90DF90CF90BF90AF90D5
:101160009F908F9008950C946607CF93DF93CDB72F
:10117000DEB7C956D1090FB6F894DEBF0FBECDBF9A
:10118000789484B5826084BD84B5816084BD85B562
:10119000826085BD85B5816085BD80916E0081606E
:1011A00080936E0010928100809181008260809314
:1011B0008100809181008160809381008091800016
:1011C0008160809380008091B10084608093B10041
:1011D0008091B00081608093B00080917A0084603B
:1011E00080937A0080917A00826080937A00809167
:1011F0007A00816080937A0080917A008068809381
:101200007A001092C100E0919703F091980382E078
:101210008083E0919303F09194031082E091950311
:10122000F091960380E1808310929F03E0919B03ED
:10123000F0919C0386E08083E0919903F0919A03FA
:10124000808180618083E0919903F0919A0380818D
:1012500088608083E0919903F0919A03808180688F
:101260008083E0919903F0919A0380818F7D808340
:1012700010923B0310923A0310926403109286037B
:101280001092620381E08093610310923C0361E05D
:1012900082E10E949E0161E083E10E949E018091B3
:1012A000B9008E7F8093B9008091B9008D7F8093C3
:1012B000B90088E48093B80085E48093BC0080E3A3
:1012C00094E00E948B0281110BC084E391E00E94A4
:1012D0007B0768EE73E080E090E00E940F02EFCFA2
:1012E00080916204882389F3809160049091610465
:1012F0008835910531F08036910531F482E591E031
:1013000005C080E791E002C08CE991E00E947B0774
:1013100069EB71E087E893E00E94B30846E656E681
:1013200066E970E487E893E00E94D70767ED71E013
:1013300087E893E00E94B30846E656E66DE774E45A
:1013400087E893E00E94D70760E072E087E893E0C7
:101350000E94B30843E353E769E373E487E893E04B
:101360000E94D70781E292E00E947B079E012F5DD9
:101370003F4F3AA729A780913804909139040197EB
:1013800021F480E394E00E945102E0913004F09156
:1013900031040480F581E02D28E0AE014F5D5F4F00
:1013A00067EF80E394E00995DE019196FE013196A6
:1013B0004D9150E060E070E04193519361937193DF
:1013C00049A55AA5E417F50799F781110DC0C12C5D
:1013D000D12CF0ECEF2EFFE7FF2E46015701CAAEED
:1013E000DBAEECAEFDAEBAC489819A81AB81BC8123
:1013F00062968CAF9DAFAEAFBFAF62972D813E813D
:101400004F81588566962CAF3DAF4EAF5FAF669764
:1014100049855A856B857C856A964CAF5DAF6EAF0A
:101420007FAF6A9789899A89AB89BC89AC01BD0174
:1014300034E0440F551F661F771F3A95D1F78D850D
:101440009E85AF85B889ECE0880F991FAA1FBB1F46
:10145000EA95D1F7842B952BA62BB72B4D895E8966
:101460006F89788DF4E07595679557954795FA954E
:10147000D1F78C019D01042B152B262B372B498C82
:101480005A8C6B8C7C8C762C652C542C44248D8D42
:101490009E8DAF8DB8A1B301A201482B592B6A2BA9
:1014A0007B2B6E964CAF5DAF6EAF7FAF6E9780912A
:1014B000410490E0982F882760914004862BA0E09B
:1014C000B0E06801790144E0F594E794D794C794BB
:1014D0004A95D1F7C81AD90AEA0AFB0AB901A80144
:1014E000E3E07595679557954795EA95D1F7880F8D
:1014F000991FAA1FBB1F9A01AB01281B390B4A0B6E
:101500005B0BA0914304B0E0BA2FAA27809142045C
:10151000A82B0E94E5142B013C010BE07594679405
:10152000579447940A95D1F7A7019601C701B601D0
:101530000E94B3149B01AC018CE0559547953795FB
:1015400027958A95D1F7A0914504B0E0BA2FAA2734
:1015500080914404A82B0E94E5144B015C012EE00D
:10156000B594A794979487942A95D1F7C301B201B3
:10157000680D791D8A1D9B1D6BA77CA78DA79EA753
:10158000A5E0B0E09B01AC010E94C511DC01CB01DC
:1015900080589F4FAF4FBF4F692F7A2F8B2F9927BE
:1015A00087FD9A950E94A81020E030E048EC52E4B4
:1015B0000E9483126AAF7BAF8CAF9DAF70914D04D8
:1015C0006F967FAF6F9780914C04A0968FAFA097D6
:1015D00090914F04A1969FAFA197A0914E04A2961F
:1015E000AFAFA297B0915104A396BFAFA39720913C
:1015F0005004A4962FAFA49730915304A5963FAF03
:10160000A59740915204A6964FAFA69750915504C6
:10161000A7965FAFA79760915404A8966FAFA8975D
:1016200070915704A9967FAFA99780915604AA9606
:101630008FAFAA97CBA4DCA4EDA4FEA4FF0CCC082A
:10164000DC2C76012BA53CA54DA55EA56C2D7C2D33
:101650008C2D9C2D345F414051096109710981092C
:1016600091092FA73BAB4CAB5DAB6EAB7FAB88AFAB
:1016700099AF59016A017B018C010E94ED142796F4
:101680002FAF279728963FAF289729964FAF2997D6
:101690002A965FAF2A972B966FAF2B972C967FAF2A
:1016A0002C972D968FAF2D972E969FAF2E978091CA
:1016B000490490E0982F882720914804822B192F05
:1016C000110F110B5C01C12ED12EE12EF12E012F35
:1016D0002FA53BA94CA95DA96EA97FA988AD99AD9D
:1016E0000E94ED140CE00E94E61519012A013B014D
:1016F0004C0180914B0490E0982F882720914A0458
:10170000822B192F110F110B5C01C12ED12EE12E4E
:10171000F12E012F27962FAD279728963FAD2897BA
:1017200029964FAD29972A965FAD2A972B966FADD4
:101730002B972C967FAD2C972D968FAD2D972E96AF
:101740009FAD2E970E94ED1408E00E94FF155101F5
:101750006201730184010E941D1670588F4F9F4FC4
:1017600020904704312C322C2224E09146042E2A6A
:101770005101C12CD12CE12CF12C00E010E00E9491
:10178000ED1401E20E94FF152EAF3FAF21964FAF3F
:10179000219722965FAF229723966FAF23972496C7
:1017A0007FAF249725968FAF259726969FAF2697D4
:1017B000A0E00E942F1609F4D9C1A496AFADA4975A
:1017C0008A2F90E0A396BFADA3979B2B192F110FE3
:1017D000110B5C01C12ED12EE12EF12E012F279687
:1017E0002FAD279728963FAD289729964FAD29977B
:1017F0002A965FAD2A972B966FAD2B972C967FADCF
:101800002C972D968FAD2D972E969FAD2E970E94DB
:10181000ED1419012A013B014C01A2962FADA297AC
:10182000822F90E0A1963FADA197932B192F110F16
:10183000110B5C01C12ED12EE12EF12E012F2FA50F
:101840003BA94CA95DA96EA97FA988AD99AD0E945D
:10185000ED1401E10E94E61559016A017B018C013A
:101860009101A201B301C4010E941D16B22E3FA72F
:101870001A012B013C0166964CAD5DAD6EAD7FAD9E
:101880006697F4E0440F551F661F771FFA95D1F74E
:101890006A968CAD9DADAEADBFAD6A9714E0B595BF
:1018A000A795979587951A95D1F7842B952BA62BFD
:1018B000B72B62964CAD5DAD6EAD7FAD62970CE01F
:1018C000440F551F661F771F0A95D1F7842B952B60
:1018D000A62BB72B40E050E060E170E0481B590BAD
:1018E0006A0B7B0BDB01CA016A017B01FF0CCC0890
:1018F000DC2C76019A01AD016C2D7C2D8C2D9C2D5C
:101900000FE10E94E6154901B42FA52F6BAB7CAB0C
:101910008DAB9EABA0965FADA097E52FF0E06F96E4
:101920006FAD6F97F62B9F2F990F990B9F01492F42
:10193000592F692F792F892F03E20E94E615A22ED5
:10194000F32FE42FD52E7B018C012B2D3FA5A10178
:10195000B201C301BF2ECE2E0E941D1659016A018D
:101960007B018C0194014B2F5A2F6BA97CA98DA967
:101970009EA90E942616722E832E942EB52FA62F76
:10198000F72FE82F592E03E00E94E615A72CB82C5C
:10199000C92CDB2EEA2EFF2E0E2F152D0E942616A7
:1019A00059016A017B01682E192F03E00E94E61598
:1019B000062D0E94261603E00E94E615A72CB82CDF
:1019C000C92CDB2EEA2EFF2E0E2F152D0E94261677
:1019D00002E00E94E6150E2F0E94261601E00E94EA
:1019E000E6150E2F0E942616AEACBFAC2196CFACEA
:1019F00021972296DFAC22972396EFAC239724966B
:101A0000FFAC249725960FAD259726961FAD2697F8
:101A10000E9448152FA73BAB4CAB5DAB6EAB7FABC9
:101A200088AF99AF0DE00E94FF15322E432E542E41
:101A3000652E762E872E982E292EAA967FADAA97F0
:101A4000E72FF0E0A9968FADA997F82B9F2F990F5C
:101A5000990BA32CB42CC52CD62CE72CF82C092DD3
:101A6000122D9F01492F592F692F792F892F0E94FD
:101A7000ED140E94ED1409E10E94FF1559016A015D
:101A80007B018C012FA53BA94CA95DA96EA97FA95B
:101A900088AD99AD0E941D1619012A013B014C0128
:101AA000A8969FADA897E92FF0E0A796AFADA797AE
:101AB000FA2B9F2F990F990BAFA4BBA8CCA8DDA838
:101AC000EEA8FFA808AD19AD9F01492F592F692F26
:101AD000792F892F0E94ED1403E10E94FF1559010F
:101AE0006A017B018C019101A201B301C4010E9432
:101AF0001D1608E00E94FF1539014A01B62FA72FD5
:101B0000F82FE92FA6962FADA697022F10E0A596E5
:101B10003FADA597132B912F990F990B9801492F42
:101B2000592F692F792F892F04E00E94E61559015A
:101B30006A017B018C019301A4016B2F7A2F8F2FF7
:101B40009E2F0E941D16B901CA010E94A61020E016
:101B500030E040E85BE30E94071120E030E048EC11
:101B600052E40E9483126B017C0106C0C12CD12C6F
:101B7000E0ECEE2EEFE7FE2E20915D048BA49CA4FA
:101B8000ADA4BEA44CE2941A41E0A40AB1086E963A
:101B90004CAC5DAC6EAC7FAC6E974EE0440C551C0B
:101BA000661C771C4A95D1F7322F3F7080915C04F8
:101BB00050E1859FC0011124832B092E000CAA0B34
:101BC000BB0B54E1880F991FAA1FBB1F5A95D1F771
:101BD000481A590A6A0A7B0A22952F70A0915E045E
:101BE00060E1A69FD0011124A22BA50194010E94BF
:101BF000E514461A570A680A790A70E4570E611C00
:101C0000711C6FE075946794579447946A95D1F767
:101C1000A0915F040A2E000CBB0B0E94E5149B01EF
:101C2000AC017AE055954795379527957A95D1F788
:101C30002BA73CA74DA75EA7A0915B04B0E0A50130
:101C400094010E94C511DC01CB01EBE0B595A7958D
:101C500097958795EA95D1F7BC01CD0170588F4FC4
:101C60009F4F2BA53CA54DA55EA50E94B314DC019A
:101C7000CB01FAE0B595A79597958795FA95D1F799
:101C80009C01AD01405E5F4FA0915A04B0E0BA2FB5
:101C9000AA2780915904A82B0E94E514DC01CB01EE
:101CA000905EAF4FBF4FBC01CD010EE0959587957B
:101CB000779567950A95D1F7A30192010E94B31415
:101CC0004B015C012FE095958795779567952A954F
:101CD000D1F79B01AC010E94B3149B01AC0167E0FA
:101CE00055954795379527956A95D1F7A091580452
:101CF000B0E00E94C511DC01CB0174E0B595A79559
:101D0000979587957A95D1F7B501A401481B590B92
:101D10006A0B7B0BDB01CA0177FF03C080E090E018
:101D2000DC0181309105A10559E1B50724F080E07F
:101D300090E0A0E0B9E1BC01CD013CE0959587952C
:101D4000779567953A95D1F70E94A61020E030E08C
:101D500040E85AE30E9407114B015C016BE472E01A
:101D600087E893E00E94B3084AAD5BAD6CAD7DADF2
:101D700087E893E00E94D70762E572E0CE01819682
:101D80000E94260764E572E0CE0101960E942607B4
:101D9000BE016F5D7F4FCE0101960E94EB060E944F
:101DA000850689819A810E94D61689A19AA10E94EE
:101DB000D61667E572E087E893E00E94B308B501A4
:101DC000A40187E893E00E94D70764E672E087E801
:101DD00093E00E94B30869E672E087E893E00E940E
:101DE000B308B701A60187E893E00E94D70766E72A
:101DF00072E0CE0101960E942607CE0101960E9454
:101E0000850689819A810E94D616A7019601C7018D
:101E1000B6010E94C913882309F496C060E070E0FF
:101E200080EC9FE76BA77CA78DA79EA72AAD3BAD53
:101E30004CAD5DADCA01B9010E94C913811110C03A
:101E4000A5019401C501B4010E94C913882309F4B6
:101E500096C0812C912C20ECA22E2FE7B22EDFC051
:101E6000812C912C90ECA92E9FE7B92E750164016D
:101E70006BE772E087E893E00E94B3084BA55CA58E
:101E80006DA57EA587E893E00E94D70768E872E019
:101E900087E893E00E94B3086AE872E087E893E07D
:101EA0000E94B308B501A40187E893E00E94D70718
:101EB00062E572E0CE0181960E94260764E572E039
:101EC000CE0101960E942607BE016F5D7F4FCE01B5
:101ED00001960E94EB060E94850689819A810E94E4
:101EE000D61689A19AA10E94D61668E972E087E801
:101EF00093E00E94B308B701A60187E893E00E942F
:101F0000D70766E772E0CE0101960E942607CE0150
:101F100001960E9485066AEB72E087E893E00E94D2
:101F2000660789819A810E94D61668EE73E080E088
:101F300090E00E940F0264EF71E080E090E00E9468
:101F40000F020E94940117CAA701960166E676E681
:101F50008DE794E40E94831224EB3CEC42E45EE3C0
:101F60000E94791320E030E040E85FE30E941612FF
:101F700027E23AEF46E257E40E94071153CF20E0F0
:101F800030E048EC52E4C501B4010E9483120E9483
:101F900031134B015C0120E030E04DE851E46AADC3
:101FA0007BAD8CAD9DAD0E9407112B013C012DE353
:101FB0003AE043E753E46AAD7BAD8CAD9DAD0E9442
:101FC00017129B01AC01C301B2010E9483122B01C5
:101FD0003C019B01AC01C501B4010E9417122DE325
:101FE0003AE043E753E40E9407116FA778AB89AB4F
:101FF0009AABA501940160E070E08DE891E40E9445
:102000001612A30192010E9416129B01AC016FA54A
:1020100078A989A99AA90E9483124B015C01A701A2
:102020009601C701B6010E94C91381112FC02EE588
:102030003BE44AE95FE36AAD7BAD8CAD9DAD0E94A8
:10204000171223E333E948E853E40E9417129B0177
:10205000AC016EE57BE48AE99FE30E9483129B0159
:10206000AC0160E070E080E89FE30E94161228E572
:1020700039E348EA50E40E9479139B01AC01C7019F
:10208000B6010E9483126B017C01F2CEC12CD12CCF
:1020900080ECE82E8FE7F82EEBCEE7E8F3E0138232
:1020A000128288EE93E0A0E0B0E084839583A6835B
:1020B000B7832AE031E03183208325EC30E0358797
:1020C000248724EC30E03787268720EC30E0318B02
:1020D000208B21EC30E0338B228B22EC30E0358BEF
:1020E000248B26EC30E0378B268B118E128E138ECC
:1020F000148EE4E2F4E01382128284839583A68333
:10210000B7838CE191E091838083E0E3F4E081E0A8
:1021100090E09383828395838483978386839187DA
:10212000808785E090E093878287158614861786DE
:10213000168612AA8EE291E09183808386E783ABB4
:1021400008950E94E31008F481E00895E89409C01E
:1021500097FB3EF490958095709561957F4F8F4FDA
:102160009F4F9923A9F0F92F96E9BB279395F695F0
:10217000879577956795B795F111F8CFFAF4BB0F6E
:1021800011F460FF1BC06F5F7F4F8F4F9F4F16C0D2
:10219000882311F096E911C0772321F09EE8872F5C
:1021A000762F05C0662371F096E8862F70E060E018
:1021B0002AF09A95660F771F881FDAF7880F969591
:1021C000879597F90895990F0008550FAA0BE0E835
:1021D000FEEF16161706E807F907C0F012161306E9
:1021E000E407F50798F0621B730B840B950B39F429
:1021F0000A2661F0232B242B252B21F408950A268F
:1022000009F4A140A6958FEF811D811D08950E94BC
:102210001A110C948B110E947D1138F00E948411C8
:1022200020F0952311F00C9474110C947A11112460
:102230000C94BF110E949C1170F3959FC1F3950FF0
:1022400050E0551F629FF001729FBB27F00DB11D3A
:10225000639FAA27F00DB11DAA1F649F6627B00DCA
:10226000A11D661F829F2227B00DA11D621F739FB3
:10227000B00DA11D621F839FA00D611D221F749FC1
:102280003327A00D611D231F849F600D211D822F08
:10229000762F6A2F11249F5750409AF0F1F088232F
:1022A0004AF0EE0FFF1FBB1F661F771F881F91505C
:1022B0005040A9F79E3F510580F00C9474110C9486
:1022C000BF115F3FE4F3983ED4F386957795679509
:1022D000B795F795E7959F5FC1F7FE2B880F911D86
:1022E0009695879597F9089597F99F6780E870E02C
:1022F00060E008959FEF80EC089500240A9416167C
:10230000170618060906089500240A9412161306E3
:10231000140605060895092E0394000C11F4882371
:1023200052F0BB0F40F4BF2B11F460FF04C06F5F8D
:102330007F4F8F4F9F4F089557FD9058440F551F63
:1023400059F05F3F71F04795880F97FB991F61F037
:102350009F3F79F087950895121613061406551FAE
:10236000F2CF4695F1DF08C0161617061806991F1A
:10237000F1CF86957105610508940895E894BB270F
:1023800066277727CB0197F908950E940712A59F2A
:10239000900DB49F900DA49F800D911D1124089560
:1023A0002F923F924F925F926F927F928F929F9265
:1023B000AF92BF92CF92DF92EF92FF920F931F9353
:1023C000CF93DF93CDB7DEB7CA1BDB0B0FB6F89404
:1023D000DEBF0FBECDBF09942A88398848885F8444
:1023E0006E847D848C849B84AA84B984C884DF80B5
:1023F000EE80FD800C811B81AA81B981CE0FD11D99
:102400000FB6F894DEBF0FBECDBFED010895A29FB9
:10241000B001B39FC001A39F700D811D1124911DB8
:10242000B29F700D811D1124911D08955058BB2736
:10243000AA270E942E120C948B110E947D1138F055
:102440000E94841120F039F49F3F19F426F40C9473
:102450007A110EF4E095E7FB0C947411E92F0E94B9
:102460009C1158F3BA17620773078407950720F089
:1024700079F4A6F50C94BE110EF4E0950B2EBA2F4C
:10248000A02D0B01B90190010C01CA01A00111247A
:10249000FF27591B99F0593F50F4503E68F11A1626
:1024A000F040A22F232F342F4427585FF3CF4695B7
:1024B00037952795A795F0405395C9F77EF41F16D9
:1024C000BA0B620B730B840BBAF09150A1F0FF0FA3
:1024D000BB1F661F771F881FC2F70EC0BA0F621F8F
:1024E000731F841F48F4879577956795B795F7957F
:1024F0009E3F08F0B0CF9395880F08F09927EE0F14
:102500009795879508950E9497120C948B110E94BD
:10251000841158F00E947D1140F029F45F3F29F0AA
:102520000C94741151110C94BF110C947A110E94E7
:102530009C1168F39923B1F3552391F3951B550B27
:10254000BB27AA2762177307840738F09F5F5F4F86
:10255000220F331F441FAA1FA9F335D00E2E3AF0C5
:10256000E0E832D091505040E695001CCAF72BD0DD
:10257000FE2F29D0660F771F881FBB1F261737072E
:102580004807AB07B0E809F0BB0B802DBF01FF2760
:1025900093585F4F3AF09E3F510578F00C947411B8
:1025A0000C94BF115F3FE4F3983ED4F38695779582
:1025B0006795B795F7959F5FC9F7880F911D969519
:1025C000879597F90895E1E0660F771F881FBB1F75
:1025D000621773078407BA0720F0621B730B840B22
:1025E000BA0BEE1F88F7E09508950E94A41188F0B9
:1025F0009F5798F0B92F9927B751B0F0E1F0660FC7
:10260000771F881F991F1AF0BA95C9F714C0B13007
:1026100091F00E94BE11B1E008950C94BE11672F95
:10262000782F8827B85F39F0B93FCCF38695779536
:102630006795B395D9F73EF490958095709561951F
:102640007F4F8F4F9F4F08950E94E31008F48FEF44
:10265000089516F00C9408140C947A1168940C9454
:1026600074110E94A411A8F39923C1F3AEF3DF9370
:10267000CF931F930F93FF92C92FDD2788232AF052
:102680002197660F771F881FDAF720E030E040E8D7
:102690005FEB9FE3883920F0803E38F021968F77FA
:1026A0000E941712E8E6F0E004C00E941712E5E964
:1026B000F0E00E9416148B01BE01EC01FB2E6F5757
:1026C00071097595771F880B990B0E94A81028E156
:1026D00032E741E35FE30E941A11AF2D9801AE018A
:1026E000FF900F911F91CF91DF910E942E120C94B9
:1026F0008B11FA01EE0FFF1F309621053105A1F174
:102700006115710561F48038BFE39B0749F1689456
:102710009038810561F08038BFEF9B0741F0992325
:102720004AF5FF3FE1053105210519F1E8940894C8
:10273000E795D901AA2329F4AB2FBE2FF85FD0F378
:1027400010C0FF5F70F4A695E0F7F73950F019F06C
:10275000FF3A38F49F779F930DD00F9007FC905865
:10276000089546F00C947A1160E070E080E89FE3F1
:1027700008954FE79F775F934F933F932F930E9466
:1027800031132F913F914F915F910E9407110C944B
:10279000D6130E94E310880B990B089529F416F0C4
:1027A0000C9474110C94BE110C947A110E94A41113
:1027B000A8F39638A0F707F80F92E8942BE33AEACB
:1027C00048EB5FE70E941D110F920F920F924DB7D9
:1027D0005EB70F920E947F14E2ECF0E00E941614A4
:1027E0004F915F91EF91FF91E595EE1FFF1F49F02B
:1027F000FE57E0684427EE0F441FFA95E1F7419534
:10280000550B0E9449140F9007FE0C943D14089537
:102810009F3F31F0915020F4879577956795B79554
:10282000880F911D9695879597F90895DF93CF931B
:102830001F930F93FF92EF92DF927B018C016894BC
:1028400006C0DA2EEF010E941A11FE01E894A5914C
:102850002591359145915591A6F3EF010E942E12D5
:10286000FE019701A801DA9469F7DF90EF90FF90DD
:102870000F911F91CF91DF9108959B01AC0160E012
:1028800070E080E89FE30C9483120C9474110C9414
:1028900008140E94A411D8F39923C9F3940F511D71
:1028A000A3F39150504094F059F0882332F0660F12
:1028B000771F881F91505040C1F79E3F51052CF75C
:1028C000880F911D9695879597F908955F3FACF015
:1028D000983E9CF0BB27869577956795B79508F449
:1028E000B1609395C1F7BB0F58F711F460FFE8CFC3
:1028F0006F5F7F4F8F4F9F4FE3CF0C94BF11FA0153
:10290000DC01AA0FBB1F9B01AC01BF5728F4222793
:1029100033274427507820C0B75190F4AB2F0024C0
:10292000469537952795011CA395D2F3002071F0A9
:10293000220F331F441FB395DAF30ED00C941612F6
:1029400061307105A0E88A07B94630F49B01AC01FB
:102950006627772788279078309621F02083318367
:10296000428353830895DB018F939F930E94C51187
:10297000BF91AF91A29F800D911DA39F900DB29F1B
:10298000900D11240895A1E21A2EAA1BBB1BFD0174
:102990000DC0AA1FBB1FEE1FFF1FA217B307E4073E
:1029A000F50720F0A21BB30BE40BF50B661F771F96
:1029B000881F991F1A9469F7609570958095909576
:1029C0009B01AC01BD01CF010895B7FF0C94C51167
:1029D0000E94C511821B930B0895DF93CF931F9321
:1029E0000F939A9DF02D219FF00D8B9DF00D8A9DE8
:1029F000E02DF10D039FF00D029FE00DF11D4E9DA6
:102A0000E00DF11D5E9DF00D4F9DF00D7F936F93D6
:102A1000BF92AF925F934F93D5010E9407128B0133
:102A2000AC01D7010E940712EB01E80FF91FD60194
:102A30000E943D152F913F91D6010E940712C60FAB
:102A4000D71FE81FF91FAF91BF910E943D152F912D
:102A50003F910E940712C60FD71FE81FF91FD6012A
:102A60000E940712E60FF71F9801BE01CF01112443
:102A70000F911F91CF91DF9108950E940712460F89
:102A8000571FC81FD91F08F431960895689401C0D4
:102A9000E894F92FF12B12F00C947A15A0E0B0E035
:102AA000E4E5F5E10C94D611092E059422F40E9478
:102AB000D615112392F4F0E80F26FFEFE094F0947E
:102AC00000951095B094C094D094A194BF0ACF0AF9
:102AD000DF0AEF0AFF0A0F0B1F0B0E94851507FC88
:102AE0000E94D615CDB7DEB7ECE00C94F2116894D5
:102AF00001C0E8948F929F92CF93DF930E94851537
:102B0000DF91CF919F908F90089588249924F401AC
:102B1000E401B0E49F93AA279A158B049C04ED0569
:102B2000FE05CF05D007A10798F4AD2FDC2FCF2FDE
:102B3000FE2FE92D982C892E982F872F762F652F21
:102B4000542F432F322F2227B85031F7BF9127C07F
:102B50001B2EBF91BB27220F331F441F551F661F1B
:102B6000771F881F991F881C991CEE1FFF1FCC1F01
:102B7000DD1FAA1FBB1F8A149B04EC05FD05CE05B3
:102B8000DF05A007B10748F08A189B08EC09FD098A
:102B9000CE09DF09A00BB10B21601A94E1F62EF4E7
:102BA0009401AF01BE01CD01000C089560957095B0
:102BB0008095909530954095509521953F4F4F4F7A
:102BC0005F4F6F4F7F4F8F4F9F4F08950F93083088
:102BD00090F0982F872F762F652F542F432F322F69
:102BE00022270850F4CF220F331F441F551F661FA2
:102BF000771F881F991F0A95B2F70F91089597FBC9
:102C000010F8169400080F93083098F00850232FFE
:102C1000342F452F562F672F782F892F902DF4CFE3
:102C20000594979587957795679557954795379527
:102C300027950A95AAF70F9108952A0D3B1D4C1D63
:102C40005D1D6E1D7F1D801F911F08952A193B0970
:102C50004C095D096E097F09800B910B08950024D2
:102C6000A7FD00942A173005400550056005700542
:102C7000800590050895EE0FFF1F0590F491E02D5B
:102C80000994CF93DF938230910510F482E090E0B5
:102C9000E0916604F091670420E030E0C0E0D0E00D
:102CA000309711F14081518148175907C0F04817FA
:102CB000590761F482819381209719F09B838A835D
:102CC0002BC0909367048093660426C021153105BC
:102CD00019F04217530718F49A01BE01DF01EF0102
:102CE0000280F381E02DDCCF2115310509F1281B8D
:102CF000390B2430310590F412968D919C911397E5
:102D00006115710521F0FB019383828304C09093C8
:102D1000670480936604FD01329644C0FD01E20F12
:102D2000F31F81939193225031092D933C933AC024
:102D30002091640430916504232B41F42091020119
:102D400030910301309365042093640420910001C5
:102D5000309101012115310541F42DB73EB7409165
:102D6000040150910501241B350BE0916404F0919E
:102D70006504E217F307A0F42E1B3F0B2817390751
:102D800078F0AC014E5F5F4F2417350748F04E0FC7
:102D90005F1F50936504409364048193919302C034
:102DA000E0E0F0E0CF01DF91CF9108950F931F9302
:102DB000CF93DF93009709F48CC0FC013297138204
:102DC000128200916604109167040115110581F4C7
:102DD00020813181820F931F20916404309165041A
:102DE0002817390779F5F0936504E093640471C0FE
:102DF000D80140E050E0AE17BF0750F412962D9175
:102E00003C911397AD012115310509F1D901F3CF9B
:102E10009D01DA013383228360817181860F971FC0
:102E20008217930769F4EC0128813981260F371F37
:102E30002E5F3F4F318320838A819B8193838283DE
:102E4000452B29F4F0936704E093660442C013967F
:102E5000FC93EE931297ED01499159919E01240F35
:102E6000351FE217F30771F480819181840F951F5C
:102E7000029611969C938E938281938113969C93D4
:102E80008E931297E0E0F0E0D80112968D919C911C
:102E90001397009719F0F8018C01F6CF8D919C9152
:102EA00098012E5F3F4F820F931F20916404309151
:102EB00065042817390769F4309729F410926704DC
:102EC0001092660402C0138212821093650400936C
:102ED0006404DF91CF911F910F910895A0E0B0E0BD
:102EE000E4E7F7E10C94D411EC01009721F4CB0155
:102EF0000E944116B8C0FC01E60FF71F9C0122504A
:102F00003109E217F30708F4ACC0D9010D911C9107
:102F1000119706171707B0F00530110508F49FC088
:102F2000C80104978617970708F499C00250110941
:102F3000061B170B019311936D937C93CF010E9495
:102F4000D6168DC05B01A01AB10A4C01800E911EED
:102F5000A0916604B091670440E050E0E12CF12CB0
:102F6000109709F44AC0A815B905D1F56D907C9069
:102F70001197630182E0C80ED11CCA14DB0480F1F2
:102F8000A3014A195B096A0182E0C80ED11C12969E
:102F9000BC9012971396AC91B5E0CB16D10440F0DB
:102FA000B282A38351834083D9016D937C930AC07D
:102FB0000E5F1F4FC301800F911FF9019183808322
:102FC000EB2DFA2FE114F10431F0D7011396FC93A5
:102FD000EE93129744C0F0936704E09366043FC0F9
:102FE0008D919C9111974817590708F4AC017D0108
:102FF00012960D90BC91A02DB3CF80916404909156
:10300000650488159905E1F446175707C8F48091BF
:10301000000190910101009741F48DB79EB7409156
:10302000040150910501841B950BE817F907C8F4BA
:10303000F0936504E0936404F901718360830FC029
:10304000CB010E9441167C01009759F0A801BE01F6
:103050000E943D18CE010E94D616C70104C0CE01C1
:1030600002C080E090E0CDB7DEB7EEE00C94F01146
:1030700081E090E0F8940C944D18FB01DC0102C053
:1030800001900D9241505040D8F70895FB01DC01AA
:0E30900001900D920020E1F70895F894FFCF13
:10309E00000068048000000000002B013306C3000E
:1030AE007201F400D200E600000000008303530317
:1030BE00B3032F0349023F033003000000008B02CD
:1030CE004004B803436F756C64206E6F742066699C
:1030DE006E6420424D453238302073656E736F72C8
:1030EE002100466F756E6420424D45323830207394
:1030FE00656E736F722120537563636573732E0053
:10310E00466F756E6420424D503238302073656EB6
:10311E00736F7221204E6F2048756D6964697479E2
:10312E0020617661696C61626C652E00466F756E0A
:10313E006420554E4B4E4F574E2073656E736F7213
:10314E0021204572726F722100417373756D656433
:10315E00206F7574646F6F722074656D7065726127
:10316E00747572653A2000C2B0430A417373756D6F
:10317E006564207265647563656420736561206C97
:10318E006576656C2050726573737572653A2000B2
:10319E006850610A417373756D6564206261726F68
:1031AE006D6574657220616C7469747564653A201E
:1031BE00006D0A2A2A2A2A2A2A2A2A2A2A2A2A2A68
:1031CE002A2A2A2A2A2A2A2A2A2A2A2A2A2A2A2A51
:1031DE002A2A2A2A2A2A2A2A2A2A0054656D703A6D
:1031EE0020004300C2B000090948756D6964697416
:1031FE00793A2000252052480009095072657373F0
:10320E007572653A200020685061000909416C749E
:10321E0069747564653A20006D000909446577206C
:10322E00706F696E743A200009094571756976618F
:10323E006C656E7420536561204C6576656C20500C
:10324E00726573737572653A20000D0A006E616EB9
:0A325E0000696E66006F76660000DE
:00000001FF
