:100000000C9499000C94C1000C94C1000C94C10094
:100010000C94C1000C94C1000C94C1000C94C1005C
:100020000C94C1000C94C1000C94C1000C94C1004C
:100030000C94C1000C94C1000C94C1000C94C1003C
:100040000C94BB040C94C1000C9489040C946304BC
:100050000C94C1000C94C1000C94C1000C94C1001C
:100060000C9405050C94C10008000000BE922449C0
:10007000123EABAAAA2ABECDCCCC4C3E00000080DA
:10008000BEABAAAAAA3E00000000BF000000803F4D
:100090000000000000084178D3BB4387D1133D190D
:1000A0000E3CC3BD4282AD2B3E68EC8276BED98F3A
:1000B000E1A93E4C80EFFFBE01C4FF7F3F0000007E
:1000C000000007634236B79BD8A71A39685618AEA6
:1000D000BAAB558C1D3CB7CC5763BD6DEDFD753E7D
:1000E000F6177231BF000000803F000000002500BD
:1000F00028002B0004040404040404040202020285
:1001000002020303030303030102040810204080DA
:100110000102040810200102040810200000000859
:1001200000020100000304070000000000000000BE
:10013000821011241FBECFEFD8E0DEBFCDBF24E078
:10014000AAE4B2E001C01D92A033B207E1F712E0C9
:10015000A0E0B1E0ECE2F1E302C005900D92AA3418
:10016000B107D9F710E0C9E9D0E004C02197FE013A
:100170000E948216C839D107C9F70E9416090C944B
:1001800094180C940000FC01538D448D252F30E011
:10019000842F90E0821B930B541710F0CF96089594
:1001A00001970895FC01918D828D981761F0828DE1
:1001B000DF01A80FB11D5D968C91928D9F5F9F739B
:1001C000928F90E008958FEF9FEF0895FC01918D3D
:1001D000828D981731F0828DE80FF11D858D90E0AA
:1001E00008958FEF9FEF0895FC01918D228D892F47
:1001F00090E0805C9F4F821B91098F73992708952F
:1002000087E093E00E94F40021E0892B09F420E0CC
:10021000822F0895FC01848DDF01A80FB11DA35A20
:10022000BF4F2C91848D90E001968F739927848F16
:10023000A689B7892C93A089B1898C9180648C930D
:10024000938D848D981306C00288F389E02D8081F8
:100250008F7D80830895EF92FF920F931F93CF932A
:10026000DF93EC0181E0888F9B8D8C8D981305C006
:10027000E889F989808185FD24C0F62E0B8D10E078
:100280000F5F1F4F0F731127E02E8C8DE8120CC0EB
:100290000FB607FCFACFE889F989808185FFF5CF91
:1002A000CE010E940A01F1CF8B8DFE01E80FF11DF6
:1002B000E35AFF4FF0820B8FEA89FB8980818062CD
:1002C00007C0EE89FF896083E889F98980818064AD
:1002D000808381E090E0DF91CF911F910F91FF909B
:1002E000EF900895CF93DF93EC01888D8823C9F0B8
:1002F000EA89FB89808185FD05C0A889B9898C912F
:1003000086FD0FC00FB607FCF5CF808185FFF2CFC9
:10031000A889B9898C9185FFEDCFCE010E940A0191
:10032000E7CFDF91CF91089580E090E0892B29F00D
:100330000E94000181110C940000089590E0FC01DE
:10034000E45EFE4F3491FC01E85FFE4F2491FC0116
:10035000EC50FF4FE491EE2309F43BC0332339F115
:10036000333091F038F43130A9F0323001F584B5F2
:100370008F7D12C0373091F03830A1F03430B9F4AD
:10038000809180008F7D03C0809180008F77809363
:1003900080000DC084B58F7784BD09C08091B00006
:1003A0008F7703C08091B0008F7D8093B000F0E024
:1003B000EE0FFF1FE651FF4FA591B4918FB7F89450
:1003C000EC91611103C020952E2301C02E2B2C939C
:1003D0008FBF08953FB7F8948091B2029091B30215
:1003E000A091B402B091B50226B5A89B05C02F3FDD
:1003F00019F00196A11DB11D3FBFBA2FA92F982F4B
:100400008827820F911DA11DB11DBC01CD0142E0C5
:10041000660F771F881F991F4A95D1F708958F920D
:100420009F92AF92BF92CF92DF92EF92FF926B01B9
:100430007C010E94EA014B015C01C114D104E1047A
:10044000F104F1F00E94EA01DC01CB01881999095D
:10045000AA09BB09883E9340A105B10570F321E0CC
:10046000C21AD108E108F10888EE880E83E0981ED0
:10047000A11CB11CC114D104E104F10419F7DDCFB2
:10048000FF90EF90DF90CF90BF90AF909F908F90B4
:1004900008958091B60290E02091B702821B9109E5
:1004A00008950F931F93CF93DF93EC018A81982FC8
:1004B0009295990F907E8E81880F880F892B0885E1
:1004C000082B8A85982F9295990F907E8C85880F9E
:1004D000880F892B1E85182BE881F9810280F38112
:1004E000E02D4C8162EFCE010995E881F98102800F
:1004F000F381E02D402F64EFCE010995E881F98169
:100500000280F381E02D412F65EFCE01DF91CF9185
:100510001F910F910994FF920F931F93CF93DF9335
:100520001F92CDB7DEB78C01DC01ED91FC91048008
:10053000F581E02D21E0AE014F5F5F4F60ED099541
:100540008981883541F0803671F480E690E0F801C9
:1005500091AB80AB0DC088E590E0D801D1969C931B
:100560008E93D09705C0F80111AA10AAF12C3BC0B8
:10057000D801ED91FC910480F581E02D26E0A801E1
:10058000405F5F4F68E8C8010995F82ED801ED91EA
:10059000FC910480F581E02D22E1A8014A5E5F4FC5
:1005A0006EE8C8010995F822D801ED91FC9104800C
:1005B000F581E02D21E0A801485D5F4F61EAC801A7
:1005C0000995F822D801ED91FC910480F581E02D88
:1005D00027E0A801475D5F4F61EEC8010995F82249
:1005E000C8010E945102F801F2AA8F2D0F90DF91ED
:1005F000CF911F910F91FF90089585ED8093BC00DE
:100600008091BC0084FDFCCF1092DE0208954091E1
:100610006C02262F30E0240F311D21323105DCF42D
:100620002091DE022430C9F4FC0180E090E08617BE
:1006300058F430916C022191DC01A65BBD4FA30FF1
:10064000B11D2C930196F3CF80916C02680F6093DB
:100650006C0280E0089581E0089582E00895089595
:10066000E091B7028091B602E81730F4F0E0EF565F
:10067000FD4F808190E008958FEF9FEF0895909156
:10068000B7028091B602981750F4E92FF0E0EF56C8
:10069000FD4F208130E09F5F9093B70202C02FEFA3
:1006A0003FEFC9010895CF92DF92EF92FF920F932F
:1006B0001F93CF93DF937C01262F972F8A01809180
:1006C000DF02882391F0C62FD72F6E01C40ED51EEE
:1006D000CC15DD0571F06991D701ED91FC91019088
:1006E000F081E02DC7010995F3CF642F822F0E947E
:1006F0000703C801DF91CF911F910F91FF90EF90F9
:10070000DF90CF900895CF93DF931F92CDB7DEB7E0
:1007100069832091DF022223D1F02091020320324D
:1007200040F021E030E0FC013383228380E090E060
:1007300015C08091E002E82FF0E0EF51FD4F998164
:1007400090838F5F8093E0028093020305C061E095
:10075000CE0101960E94070381E090E00F90DF91A7
:10076000CF910895089580E090E008950E947F1849
:10077000CF92DF92EF92FF920F931F93CF93DF936D
:100780007C018A01D22FFC0183A991E09093DF02C2
:10079000809301031092E002109202038CEE93E02A
:1007A0000E94830381E00E942808F70183A99091A9
:1007B000DE029111FCCFCD2FD13208F0C0E291E0E2
:1007C0009093DE029093DD022FEF2093DC021092D3
:1007D000DB022C0F2093DA029093B9029091B902B8
:1007E000880F892B8093B9028091B802813061F41F
:1007F0001092B8028091B9028093BB008091BC0036
:1008000083FDF8CF85EC01C085EE8093BC0080911C
:10081000DE028130E1F38091DB028C1710F4C0918D
:10082000DB02AAEBB2E021E932E0F9018E2F821B54
:100830008C1718F48D918193F9CF1092B702C09361
:10084000B60290E08091B702C81771F0FF24F394CC
:10085000F90E6801C90ED11C8CEE93E00E943F0393
:10086000F60180839F2DEECF81E09D1380E0DF9124
:10087000CF911F910F91FF90EF90DF90CF9008954F
:10088000CF93DF931F92CDB7DEB7FC0183A991E030
:100890009093DF02809301031092E0021092020312
:1008A0008CEE93E049830E9483034981642F8CEE90
:1008B00093E00E94830381E00E94280881E00F906A
:1008C000DF91CF9108951F920F920FB60F921124CE
:1008D0002F933F934F935F936F937F938F939F9348
:1008E000AF93BF93EF93FF9387E093E00E940A01D9
:1008F000FF91EF91BF91AF919F918F917F916F91F8
:100900005F914F913F912F910F900FBE0F901F90CD
:1009100018951F920F920FB60F9211242F938F9359
:100920009F93EF93FF93E0911703F0911803808159
:10093000E0911D03F0911E0382FD12C09081809111
:1009400020038F5F8F7320912103821751F0E09174
:100950002003F0E0E95FFC4F958F8093200301C0F6
:100960008081FF91EF919F918F912F910F900FBEFA
:100970000F901F9018951F920F920FB60F9211248F
:100980002F933F938F939F93AF93BF9380910303D4
:1009900090910403A0910503B09106033091B10238
:1009A00023E0230F2D3720F40196A11DB11D05C0B2
:1009B00026E8230F0296A11DB11D2093B10280935A
:1009C000030390930403A0930503B093060380915F
:1009D000B2029091B302A091B402B091B502019617
:1009E000A11DB11D8093B2029093B302A093B402F3
:1009F000B093B502BF91AF919F918F913F912F918D
:100A00000F900FBE0F901F9018951F920F920FB668
:100A10000F9211242F933F934F935F936F937F9384
:100A20008F939F93AF93BF93EF93FF938091B90000
:100A3000887F803609F49CC068F5883209F45BC071
:100A400090F4803109F454C038F4882309F4F6C0D6
:100A5000883009F44DC0F6C0883109F44CC08032AA
:100A600009F45DC0EFC0803409F468C048F48033F5
:100A700009F455C0883309F0E5C08093DC02D8C082
:100A8000803509F44FC0883509F45DC0883409F019
:100A9000D9C0D6C0883909F4C7C0A8F4883709F48A
:100AA00067C038F4883609F463C0803709F460C041
:100AB000C9C0883809F4B8C0803909F45FC08038EB
:100AC00009F0C0C05BC0803B09F486C038F4803AAE
:100AD00009F466C0883A09F47FC0B4C0803C09F4C8
:100AE000A7C0883C09F4A4C0883B09F48AC0AAC006
:100AF0008091B90210C09091DB028091DA029817C0
:100B000070F5E091DB0281E08E0F8093DB02F0E074
:100B1000E654FD4F80818093BB0085EC86C08093B6
:100B2000DC028EC0E091DB0281E08E0F8093DB025D
:100B30008091BB00F0E0E654FD4F80839091DB0292
:100B40008091DA026EC0E091DB0281E08E0F80932B
:100B5000DB028091BB00F0E0E654FD4F8083809182
:100B6000DD0281116DC081E08093B80284EA61C02A
:100B700083E08093DE0210929002CFCF80919002AA
:100B8000803208F051C0E091900281E08E0F809396
:100B900090028091BB00F0E0E059FD4F8083BDCF13
:100BA00085EC8093BC001092DE028091900280322E
:100BB00030F4E0919002F0E0E059FD4F1082609136
:100BC000900270E0E0916E02F0916F0280E792E097
:100BD00009951092900236C084E08093DE02109254
:100BE0006D0210926C02E0916A02F0916B0209951D
:100BF00080916C02811105C081E080936C0210929B
:100C00004A02E0916D0281E08E0F80936D02F0E068
:100C1000E65BFD4F80818093BB0090916D028091D7
:100C20006C02981708F479CF85E88093BC000AC05D
:100C300085EC8093BC001092DE0204C01092DC02AE
:100C40000E94FD02FF91EF91BF91AF919F918F9113
:100C50007F916F915F914F913F912F910F900FBEB8
:100C60000F901F901895CF92DF92EF92FF920F9303
:100C70001F93CF93DF936C017A018B01C0E0D0E02A
:100C8000CE15DF0589F0D8016D918D01D601ED916A
:100C9000FC910190F081E02DC6010995892B11F49A
:100CA0007E0102C02196ECCFC701DF91CF911F9149
:100CB0000F91FF90EF90DF90CF9008950F931F93C7
:100CC000CF93DF93EC0188819981009729F02A81E5
:100CD0003B812617370788F48B016F5F7F4F0E9497
:100CE000B517009761F0998388831B830A832C8151
:100CF0003D81232B11F4FC01108281E001C080E0D2
:100D0000DF91CF911F910F9108956115710579F0D1
:100D1000FB0101900020E9F73197AF01461B570B0B
:100D2000DC01ED91FC910280F381E02D099480E0DB
:100D300090E008954F925F926F927F92EF92FF92B0
:100D40000F931F93CF93DF93CDB7DEB7A1970FB665
:100D5000F894DEBF0FBECDBF7C01FA01CB0119A212
:100D6000223008F42AE08E010F5D1F4F422E512CD5
:100D7000612C712CBF01A30192010E941C12F90188
:100D8000CA01015011096A3014F4605D01C0695C48
:100D9000D8016C93232B242B252B61F7B801C701B5
:100DA0000E948506A1960FB6F894DEBF0FBECDBF98
:100DB000DF91CF911F910F91FF90EF907F906F90F7
:100DC0005F904F900895E7E0F3E0A089B18982E059
:100DD0008C93A485B5851C92A685B78580E18C93FC
:100DE000108EA489B58986E08C93A289B3898C91F1
:100DF00080618C93A289B3898C9188608C93A2893D
:100E0000B3898C9180688C930288F389E02D80816E
:100E10008F7D80830895CF92DF92EF92FF920F93A0
:100E20001F932FB7F894C0900303D0900403E09071
:100E30000503F09006032FBFDC01CB018C0D9D1D37
:100E4000AE1DBF1D4FB7F89400910303109104032A
:100E500020910503309106034FBF0C151D052E058B
:100E60003F0528F080179107A207B30758F71F9195
:100E70000F91FF90EF90DF90CF9008954F925F9287
:100E80006F927F928F929F92AF92BF92CF92DF929A
:100E9000EF92FF926B017C01B42E9B01AC010E948A
:100EA0004214882319F06EE372E027C0260137014F
:100EB000E89477F82FEF3FEF4FE75FE7C301B20108
:100EC0000E94421481110DC02FEF3FEF4FE75FE703
:100ED000C301B2010E94E81018161CF462E472E02B
:100EE0000CC02FEF3FEF4FE75FE4C701B6010E9450
:100EF0009D13181694F466E472E087E093E0FF9087
:100F0000EF90DF90CF90BF90AF909F908F907F90A9
:100F10006F905F904F900C9485062FEF3FEF4FE757
:100F20005FECC701B6010E94E81087FDE4CF20E026
:100F300030E0A901C701B6010E94E81087FF11C087
:100F4000E0910703F09108030190F081E02D6DE23C
:100F500087E093E009954C01F7FAF094F7F8F094E4
:100F600002C0812C912CA12C60E070E080E09FE316
:100F7000AB1441F020E030E040E251E40E94FC126A
:100F8000A394F6CF9B01AC01C701B6010E94901259
:100F90002B013C010E946E136B017C010E94ED103D
:100FA0009B01AC01C301B2010E948F122B013C01D5
:100FB0002AE0B701A60187E093E00E949A067C012F
:100FC000E80CF91CBB2069F0E0910703F0910803DD
:100FD0000190F081E02D6EE287E093E00995E80E44
:100FE000F91EDB2CDD2031F120E030E040E251E45D
:100FF000C301B2010E944E112B013C010E946E13ED
:101000004B01A12CB12C2AE0B501A40187E093E0AB
:101010000E949A06E80EF91EC501B4010E94ED1067
:101020009B01AC01C301B2010E948F122B013C0154
:10103000DA94D8CFC701FF90EF90DF90CF90BF90A8
:10104000AF909F908F907F906F905F904F9008959A
:10105000382F2091020390910103213208F049C0FA
:101060008091DE028111FCCF42E04093DE0230939A
:10107000DD023FEF3093DC021092DB022093DA02B4
:10108000A1EEB2E04AEB52E0FA013E2F341B3217D8
:1010900018F43D913193F9CF1092B9022091B90221
:1010A000990F922B9093B9029091B802913061F40C
:1010B0001092B8029091B9029093BB009091BC003D
:1010C00093FDF8CF95EC01C095EE9093BC00909104
:1010D000DE029230E1F39091DC029F3F79F0809143
:1010E000DC02803241F08091DC02803331F084E018
:1010F00005C081E003C082E001C083E01092E002FD
:10110000109202031092DF020895EF92FF920F9364
:101110001F93CF93DF93EC01FB0184819581E080E5
:10112000F1800C811D81E114F104B1F0009701F10F
:10113000080F191FB801CE010E945E06882361F0D6
:10114000288139818C819D81B701820F931F0E9474
:101150008D181D830C830CC088819981009711F034
:101160000E941D17198218821D821C821B821A82FE
:10117000CE01DF91CF911F910F91FF90EF900895D5
:10118000EF92FF920F931F93CF93DF93EC0119829D
:1011900018821B821A821D821C826115710549F119
:1011A0008B01FB0101900020E9F731977F01E61ADE
:1011B000F70AB7010E945E062881398181110DC0AE
:1011C0002115310519F0C9010E941D1719821882D5
:1011D0001D821C821B821A820CC0FD82EC82B80127
:1011E000C901DF91CF911F910F91FF90EF900C9467
:1011F0008D18DF91CF911F910F91FF90EF9008957F
:101200000F931F93CF93DF93EC010E9485068C010F
:1012100063E471E0CE010E948506800F911FDF918B
:10122000CF911F910F9108950C948506CF93DF9372
:10123000CDB7DEB7C956D1090FB6F894DEBF0FBEE1
:10124000CDBF789484B5826084BD84B5816084BD4F
:1012500085B5826085BD85B5816085BD80916E0054
:10126000816080936E001092810080918100826085
:1012700080938100809181008160809381008091C2
:1012800080008160809380008091B10084608093B1
:10129000B1008091B00081608093B00080917A00AD
:1012A000846080937A0080917A00826080937A00D3
:1012B00080917A00816080937A0080917A008068C2
:1012C00080937A001092C1001092E8031092E90313
:1012D0001092EA031092EB031092A6031092A70358
:1012E0001092A8031092A90368EB7BE080E090E0E5
:1012F0000E940B0787E093E09093E7038093E60357
:101300000E94E30664E371E08091E6039091E703B5
:101310000E9414096AE070E080E090E00E940B07F0
:1013200011E01093BA030E94E3061092B7021092E4
:10133000B6021092E002109202031092DE021093A5
:10134000DD021092B80261E082E10E949E0161E03C
:1013500083E10E949E018091B9008E7F8093B90045
:101360008091B9008D7F8093B90088E48093B800A4
:1013700085E48093BC0088EF93E00E948B0281118A
:101380000DC066E471E087E093E00E94000968EE1A
:1013900073E080E090E00E940F02EDCF80912A047C
:1013A000882379F380912804909129048835910548
:1013B00079F08036910579F464E671E087E093E096
:1013C0000E9400099E012F5D3F4F3AA729A73EC109
:1013D00062E871E0F3CF6EEA71E0F0CFE091F803DC
:1013E000F091F9030480F581E02D28E0AE014F5D16
:1013F0005F4F67EF88EF93E00995DE019196FE015C
:1014000031964D9150E060E070E0419351936193CB
:10141000719349A55AA5E417F50799F7811122C1DF
:10142000C12CD12CF0ECEF2EFFE7FF2E2601370167
:10143000CBAADCAAEDAAFEAA6BEC71E087E093E0F0
:101440000E94140942E06BA97CA98DA99EA90E9463
:101450003E0762ED71E0CE0181960E94C00864ED06
:1014600071E0CE0101960E94C008BE016F5D7F4F02
:10147000CE0101960E948508DC0114964D915C9185
:1014800015976D917C9187E093E00E9433068981E6
:101490009A810E941D1789A19AA10E941D1767EDCC
:1014A00071E087E093E00E94140942E0C301B201B9
:1014B0000E943E0764EE71E087E093E00E94140909
:1014C00069EE71E087E093E00E94140942E0C701F1
:1014D000B6010E943E0766EF71E087E093E00E944C
:1014E0001409A7019601C701B6010E9442142BA955
:1014F0003CA94DA95EA9882309F46FC5CA01B901A9
:101500000E944214812C912C90ECA92E9FE7B92EB9
:1015100081116FC5A3019201C301B2010E9442145F
:10152000882309F498C5412C512C80EC682E8FE754
:10153000782E2EE53BE44AE95FE36BA97CA98DA9EF
:101540009EA90E94901223E333E948E853E40E94E5
:1015500090129B01AC016EE57BE48AE99FE30E9457
:10156000FC129B01AC0160E070E080E89FE30E9408
:101570008F1228E539E348EA50E40E94F2139B01F8
:10158000AC01C701B6010E94FC126B017C016AEF3D
:1015900071E087E093E00E94140942E0C501B401C4
:1015A0000E943E0767E072E087E093E00E94140922
:1015B00069E072E087E093E00E94140942E0C30111
:1015C000B2010E943E0762ED71E0CE0181960E9459
:1015D000C00864ED71E0CE0101960E94C008BE0112
:1015E0006F5D7F4FCE0101960E948508FC0144810A
:1015F00055816081718187E093E00E943306898183
:101600009A810E941D1789A19AA10E941D1767E166
:1016100072E087E093E00E94140942E0C701B6013E
:101620000E943E0769E372E087E093E00E940009B0
:1016300068EE73E080E090E00E940F0264EF71E0DA
:1016400080E090E00E940F020E94940180910004CB
:1016500090910104019709F0C1CE88EF93E00E94B8
:101660005102BCCE89819A81AB81BC8162968CAFDC
:101670009DAFAEAFBFAF62972D813E814F81588540
:1016800066962CAF3DAF4EAF5FAF669749855A85E2
:101690006B857C856A964CAF5DAF6EAF7FAF6A9706
:1016A00089899A89AB89BC89AC01BD0134E0440FBA
:1016B000551F661F771F3A95D1F78D859E85AF859B
:1016C000B889ECE0880F991FAA1FBB1FEA95D1F7D4
:1016D000842B952BA62BB72B4D895E896F89788D2E
:1016E000F4E07595679557954795FA95D1F78C0174
:1016F0009D01042B152B262B372B498C5A8C6B8C78
:101700007C8C762C652C542C44248D8D9E8DAF8D35
:10171000B8A1B301A201482B592B6A2B7B2B6E96E3
:101720004CAF5DAF6EAF7FAF6E978091090490E0D4
:10173000982F882760910804862BA0E0B0E068010C
:10174000790144E0F594E794D794C7944A95D1F78A
:10175000C81AD90AEA0AFB0AB901A801E3E075959B
:10176000679557954795EA95D1F7880F991FAA1F56
:10177000BB1F9A01AB01281B390B4A0B5B0BA091D5
:101780000B04B0E0BA2FAA2780910A04A82B0E946C
:101790002C152B013C010BE07594679457944794EA
:1017A0000A95D1F7A7019601C701B6010E940C1254
:1017B0009B01AC018CE055954795379527958A9507
:1017C000D1F7A0910D04B0E0BA2FAA2780910C04A4
:1017D000A82B0E942C154B015C012EE0B594A79418
:1017E000979487942A95D1F7C301B201680D791DAA
:1017F0008A1D9B1D6BA77CA78DA79EA7A5E0B0E0C7
:101800009B01AC010E943E12DC01CB0180589F4F2E
:10181000AF4FBF4F692F7A2F8B2F992787FD9A954E
:101820000E94EF1020E030E048EC52E40E94FC12ED
:101830006BAB7CAB8DAB9EAB709115046F967FAF9D
:101840006F9780911404A0968FAFA0979091170482
:10185000A1969FAFA197A0911604A296AFAFA297B1
:10186000B0911904A396BFAFA397E0911804A49672
:10187000EFAFA497F0911B04A596FFAFA597209119
:101880001A04A6962FAFA69730911D04A7963FAFD6
:10189000A79740911C04A8964FAFA89750911F049A
:1018A000A9965FAFA99760911E04AA966FAFAA97F9
:1018B000CBA4DCA4EDA4FEA4FF0CCC08DC2C7601A8
:1018C0002BA53CA54DA55EA56C2D7C2D8C2D9C2DAE
:1018D000345F4140510961097109810991092FA7BC
:1018E0003FAB48AF59AF6AAF7BAF8CAF9DAF5901EB
:1018F0006A017B018C010E94341527962FAF279730
:1019000028963FAF289729964FAF29972A965FAF21
:101910002A972B966FAF2B972C967FAF2C972D96EF
:101920008FAF2D972E969FAF2E978091110490E048
:10193000982F882720911004822B192F110F110B3B
:101940005C01C12ED12EE12EF12E012F2FA53FA932
:1019500048AD59AD6AAD7BAD8CAD9DAD0E943415DF
:101960000CE00E942D1619012A013B014C018091C7
:10197000130490E0982F882720911204822B192FAE
:10198000110F110B5C01C12ED12EE12EF12E012F72
:1019900027962FAD279728963FAD289729964FADCC
:1019A00029972A965FAD2A972B966FAD2B972C9689
:1019B0007FAD2C972D968FAD2D972E969FAD2E97A0
:1019C0000E94341508E00E9446165101620173011D
:1019D00084010E94641670588F4F9F4F20900F040F
:1019E000312C322C2224E0910E042E2A5101C12CDC
:1019F000D12CE12CF12C00E010E00E94341501E222
:101A00000E9446162EAF3FAF21964FAF21972296E8
:101A10005FAF229723966FAF239724967FAF2497CB
:101A200025968FAF259726969FAF2697A0E00E9418
:101A3000761609F4D9C1A4967FADA497872F90E0BC
:101A4000A396AFADA3979A2B192F110F110B5C0121
:101A5000C12ED12EE12EF12E012F27962FAD2797E3
:101A600028963FAD289729964FAD29972A965FADC6
:101A70002A972B966FAD2B972C967FAD2C972D9692
:101A80008FAD2D972E969FAD2E970E94341519017C
:101A90002A013B014C01A296BFADA2978B2F90E08B
:101AA000A196EFADA1979E2B192F110F110B5C0181
:101AB000C12ED12EE12EF12E012F2FA53FA948AD29
:101AC00059AD6AAD7BAD8CAD9DAD0E94341501E181
:101AD0000E942D1659016A017B018C019101A2011E
:101AE000B301C4010E946416B22E3FA71A012B0154
:101AF0003C0166964CAD5DAD6EAD7FAD6697F4E092
:101B0000440F551F661F771FFA95D1F76A968CAD63
:101B10009DADAEADBFAD6A9714E0B595A79597950D
:101B200087951A95D1F7842B952BA62BB72B629608
:101B30004CAD5DAD6EAD7FAD62970CE0440F551FAF
:101B4000661F771F0A95D1F7842B952BA62BB72BF1
:101B500020E030E040E150E0281B390B4A0B5B0BE2
:101B6000DA01C90169017A01FF0CCC08DC2C76018D
:101B70009C01AD016C2D7C2D8C2D9C2D0FE10E94C4
:101B80002D164901B42FA52F6FAB78AF89AF9AAF4F
:101B9000A0963FADA097E32FF0E06F964FAD6F9703
:101BA000F42B9F2F990F990B9F01492F592F692FC4
:101BB000792F892F03E20E942D16A22EF32FE42FF6
:101BC000D52E7B018C012B2D3FA5A101B201C301B4
:101BD000BF2ECE2E0E94641659016A017B018C0132
:101BE00094014B2F5A2F6FA978AD89AD9AAD0E9401
:101BF0006D16722E832E942EB52FA62FF72FE82F59
:101C0000592E03E00E942D16A72CB82CC92CDB2ED0
:101C1000EA2EFF2E0E2F152D0E946D1659016A0116
:101C20007B01682E192F03E00E942D16062D0E94BD
:101C30006D1603E00E942D16A72CB82CC92CDB2EA4
:101C4000EA2EFF2E0E2F152D0E946D1602E00E9427
:101C50002D160E2F0E946D1601E00E942D160E2FDC
:101C60000E946D16AEACBFAC2196CFAC21972296E8
:101C7000DFAC22972396EFAC23972496FFAC2497F2
:101C800025960FAD259726961FAD26970E948F1596
:101C90002FA73FAB48AF59AF6AAF7BAF8CAF9DAFBB
:101CA0000DE00E944616322E432E542E652E762EBF
:101CB000872E982E292EAA965FADAA97E52FF0E0E1
:101CC000A9966FADA997F62B9F2F990F990BA32C6F
:101CD000B42CC52CD62CE72CF82C092D122D9F01E5
:101CE000492F592F692F792F892F0E9434150E946F
:101CF000341509E10E94461659016A017B018C01E5
:101D00002FA53FA948AD59AD6AAD7BAD8CAD9DAD5A
:101D10000E94641619012A013B014C01A8967FAD6F
:101D2000A897E72FF0E0A7968FADA797F82B9F2FE6
:101D3000990F990BAFA4BFA8C8ACD9ACEAACFBAC67
:101D40000CAD1DAD9F01492F592F692F792F892F78
:101D50000E94341503E10E94461659016A017B0175
:101D60008C019101A201B301C4010E94641608E034
:101D70000E94461639014A01B62FA72FF82FE92FE6
:101D8000A6969FADA697092F10E0A5962FADA59713
:101D9000122B912F990F990B9801492F592F692FC9
:101DA000792F892F04E00E942D1659016A017B01C9
:101DB0008C019301A4016B2F7A2F8F2F9E2F0E94ED
:101DC0006416B901CA010E94ED1020E030E040E83D
:101DD0005BE30E944E1120E030E048EC52E40E94A8
:101DE000FC126B017C0106C0C12CD12CE0ECEE2E64
:101DF000EFE7FE2E209125048BA49CA4ADA4BEA4E5
:101E00003CE2931A31E0A30AB1086E964CAC5DAC8B
:101E10006EAC7FAC6E974EE0440C551C661C771C74
:101E20004A95D1F7322F3F708091240440E1849F7E
:101E3000C0011124832B092E000CAA0BBB0B54E10B
:101E4000880F991FAA1FBB1F5A95D1F7481A590A24
:101E50006A0A7B0A22952F70A091260450E1A59F63
:101E6000D0011124A22BA50194010E942C15461A21
:101E7000570A680A790A60E4560E611C711C6FE00B
:101E800075946794579447946A95D1F7A091270465
:101E90000A2E000CBB0B0E942C159B01AC017AE0B2
:101EA00055954795379527957A95D1F72BA73CA758
:101EB0004DA75EA7A0912304B0E0A50194010E9464
:101EC0003E12DC01CB01EBE0B595A7959795879580
:101ED000EA95D1F7BC01CD0170588F4F9F4F2BA5CC
:101EE0003CA54DA55EA50E940C12DC01CB01FAE0D9
:101EF000B595A79597958795FA95D1F79C01AD0172
:101F0000405E5F4FA0912204B0E0BA2FAA278091D3
:101F10002104A82B0E942C15DC01CB01905EAF4F51
:101F2000BF4FBC01CD010EE09595879577956795DC
:101F30000A95D1F7A30192010E940C124B015C019A
:101F40002FE095958795779567952A95D1F79B0111
:101F5000AC010E940C129B01AC0167E055954795BE
:101F6000379527956A95D1F7A0912004B0E00E949B
:101F70003E12DC01CB0174E0B595A7959795879546
:101F80007A95D1F7B501A401481B590B6A0B7B0B5D
:101F9000DB01CA0177FF03C080E090E0DC01813003
:101FA0009105A10559E1B50724F080E090E0A0E09B
:101FB000B9E1BC01CD013CE0959587957795679592
:101FC0003A95D1F70E94ED1020E030E040E85AE366
:101FD0000E944E112B013C012FCACA01B9010E9477
:101FE0004214882349F0812C912C20ECA22E2FE75B
:101FF000B22E240135019DCAA701960160E070EA66
:102000008DE794E40E94FC1224EB3CEC42E45EE396
:102010000E94F21320E030E040E85FE30E948F125C
:102020004B015C0123E333E948E853E46BA97CA945
:102030008DA99EA90E94901224EF3DEF44ED5BE331
:102040000E94FC129B01AC01C501B4010E944E111B
:102050004B015C015FCA20E030E048EC52E4C30170
:10206000B2010E94FC120E94AA136BA77CA78DA745
:102070009EA720E030E04DE851E46BA97CA98DA932
:102080009EA90E944E112B013C012DE33AE043E74B
:1020900053E46BA97CA98DA99EA90E9490129B0173
:1020A000AC01C301B2010E94FC122B013C019B0157
:1020B000AC016BA57CA58DA59EA50E9490122DE379
:1020C0003AE043E753E40E944E116FA778AB89AB27
:1020D0009AAB2BA53CA54DA55EA560E070E08DE810
:1020E00091E40E948F12A30192010E948F129B0122
:1020F000AC016FA578A989A99AA90E94FC122B01AD
:102100003C0117CAE7E0F3E01382128288EE93E005
:10211000A0E0B0E084839583A683B7832AE031E012
:102120003183208325EC30E03587248724EC30E0B0
:102130003787268720EC30E0318B208B21EC30E094
:10214000338B228B22EC30E0358B248B26EC30E075
:10215000378B268B118E128E138E148EE4EAF3E0E9
:1021600016821782108611861286138614861586AB
:1021700016861786108A118A128A138A148A158A7B
:10218000ECEEF3E01382128284839583A683B783F7
:102190008CE191E091838083E8EFF3E081E090E0CF
:1021A00093838283958384839783868391878087B3
:1021B00085E090E0938782871586148617861686B9
:1021C00012AA8EE291E09183808386E783AB089523
:1021D0000E942A1108F481E00895E89409C097FB51
:1021E0003EF490958095709561957F4F8F4F9F4FEE
:1021F0009923A9F0F92F96E9BB279395F695879532
:1022000077956795B795F111F8CFFAF4BB0F11F4F4
:1022100060FF1BC06F5F7F4F8F4F9F4F16C088239B
:1022200011F096E911C0772321F09EE8872F762FD1
:1022300005C0662371F096E8862F70E060E02AF012
:102240009A95660F771F881FDAF7880F96958795FE
:1022500097F90895990F0008550FAA0BE0E8FEEFD3
:1022600016161706E807F907C0F012161306E4075A
:10227000F50798F0621B730B840B950B39F40A2653
:1022800061F0232B242B252B21F408950A2609F431
:10229000A140A6958FEF811D811D08950E946111B7
:1022A0000C94D2110E94C41138F00E94CB1120F07E
:1022B000952311F00C94BB110C94C11111240C94B2
:1022C00006120E94E31170F3959FC1F3950F50E041
:1022D000551F629FF001729FBB27F00DB11D639FD8
:1022E000AA27F00DB11DAA1F649F6627B00DA11D7E
:1022F000661F829F2227B00DA11D621F739FB00D24
:10230000A11D621F839FA00D611D221F749F332793
:10231000A00D611D231F849F600D211D822F762F2C
:102320006A2F11249F5750409AF0F1F088234AF009
:10233000EE0FFF1FBB1F661F771F881F9150504075
:10234000A9F79E3F510580F00C94BB110C94061226
:102350005F3FE4F3983ED4F3869577956795B795FC
:10236000F795E7959F5FC1F7FE2B880F911D969516
:10237000879597F9089597F99F6780E870E060E086
:1023800008959FEF80EC089500240A94161617060E
:1023900018060906089500240A9412161306140656
:1023A00005060895092E0394000C11F4882352F0B9
:1023B000BB0F40F4BF2B11F460FF04C06F5F7F4F71
:1023C0008F4F9F4F089557FD9058440F551F59F058
:1023D0005F3F71F04795880F97FB991F61F09F3F12
:1023E00079F087950895121613061406551FF2CF3B
:1023F0004695F1DF08C0161617061806991FF1CF8B
:1024000086957105610508940895E894BB276627B1
:102410007727CB0197F90895DB018F939F930E9453
:102420003E12BF91AF91A29F800D911DA39F900D71
:10243000B29F900D11240895A1E21A2EAA1BBB1B76
:10244000FD010DC0AA1FBB1FEE1FFF1FA217B30780
:10245000E407F50720F0A21BB30BE40BF50B661F96
:10246000771F881F991F1A9469F76095709580955A
:1024700090959B01AC01BD01CF0108950E9480128F
:10248000A59F900DB49F900DA49F800D911D1124C8
:1024900008952F923F924F925F926F927F928F9208
:1024A0009F92AF92BF92CF92DF92EF92FF920F93E3
:1024B0001F93CF93DF93CDB7DEB7CA1BDB0B0FB6ED
:1024C000F894DEBF0FBECDBF09942A8839884888AA
:1024D0005F846E847D848C849B84AA84B984C88440
:1024E000DF80EE80FD800C811B81AA81B981CE0F37
:1024F000D11D0FB6F894DEBF0FBECDBFED0108951C
:10250000A29FB001B39FC001A39F700D811D112434
:10251000911DB29F700D811D1124911D0895505879
:10252000BB27AA270E94A7120C94D2110E94C411A3
:1025300038F00E94CB1120F039F49F3F19F426F4B3
:102540000C94C1110EF4E095E7FB0C94BB11E92F3C
:102550000E94E31158F3BA176207730784079507BF
:1025600020F079F4A6F50C9405120EF4E0950B2EEC
:10257000BA2FA02D0B01B90190010C01CA01A001D5
:102580001124FF27591B99F0593F50F4503E68F130
:102590001A16F040A22F232F342F4427585FF3CF71
:1025A000469537952795A795F0405395C9F77EF442
:1025B0001F16BA0B620B730B840BBAF09150A1F08B
:1025C000FF0FBB1F661F771F881FC2F70EC0BA0F11
:1025D000621F731F841F48F4879577956795B79599
:1025E000F7959E3F08F0B0CF9395880F08F0992794
:1025F000EE0F9795879508950E9410130C94D211B1
:102600000E94CB1158F00E94C41140F029F45F3FA2
:1026100029F00C94BB1151110C9406120C94C111A9
:102620000E94E31168F39923B1F3552391F3951BAD
:10263000550BBB27AA2762177307840738F09F5FE3
:102640005F4F220F331F441FAA1FA9F335D00E2E50
:102650003AF0E0E832D091505040E695001CCAF7BD
:102660002BD0FE2F29D0660F771F881FBB1F261780
:1026700037074807AB07B0E809F0BB0B802DBF0157
:10268000FF2793585F4F3AF09E3F510578F00C9426
:10269000BB110C9406125F3FE4F3983ED4F3869589
:1026A00077956795B795F7959F5FC9F7880F911D47
:1026B0009695879597F90895E1E0660F771F881F33
:1026C000BB1F621773078407BA0720F0621B730BE6
:1026D000840BBA0BEE1F88F7E09508950E94EB116A
:1026E00088F09F5798F0B92F9927B751B0F0E1F0D3
:1026F000660F771F881F991F1AF0BA95C9F714C083
:10270000B13091F00E940512B1E008950C940512C9
:10271000672F782F8827B85F39F0B93FCCF38695BB
:1027200077956795B395D9F73EF490958095709518
:1027300061957F4F8F4F9F4F08950E942A1108F493
:102740008FEF089516F00C9481140C94C1116894C5
:102750000C94BB110E94EB11A8F39923C1F3AEF3C3
:10276000DF93CF931F930F93FF92C92FDD27882309
:102770002AF02197660F771F881FDAF720E030E0F4
:1027800040E85FEB9FE3883920F0803E38F02196E7
:102790008F770E949012E8E6F0E004C00E94901249
:1027A000E5E9F0E00E948F148B01BE01EC01FB2EE5
:1027B0006F5771097595771F880B990B0E94EF1061
:1027C00028E132E741E35FE30E946111AF2D9801F8
:1027D000AE01FF900F911F91CF91DF910E94A71240
:1027E0000C94D211FA01EE0FFF1F3096210531052E
:1027F000A1F16115710561F48038BFE39B0749F1D0
:1028000068949038810561F08038BFEF9B0741F0F4
:1028100099234AF5FF3FE1053105210519F1E894B7
:102820000894E795D901AA2329F4AB2FBE2FF85FAE
:10283000D0F310C0FF5F70F4A695E0F7F73950F0C1
:1028400019F0FF3A38F49F779F930DD00F9007FC53
:102850009058089546F00C94C11160E070E080E853
:102860009FE308954FE79F775F934F933F932F9395
:102870000E94AA132F913F914F915F910E944E1198
:102880000C944F140E942A11880B990B089529F477
:1028900016F00C94BB110C9405120C94C1110E94FB
:1028A000EB11A8F39638A0F707F80F92E8942BE302
:1028B0003AEA48EB5FE70E9464110F920F920F9281
:1028C0004DB75EB70F920E94F814E2ECF0E00E9460
:1028D0008F144F915F91EF91FF91E595EE1FFF1FD0
:1028E00049F0FE57E0684427EE0F441FFA95E1F7E0
:1028F0004195550B0E94C2140F9007FE0C94B6141C
:1029000008959F3F31F0915020F487957795679512
:10291000B795880F911D9695879597F90895DF9340
:10292000CF931F930F93FF92EF92DF927B018C0165
:10293000689406C0DA2EEF010E946111FE01E8944E
:10294000A5912591359145915591A6F3EF010E94EE
:10295000A712FE019701A801DA9469F7DF90EF90C2
:10296000FF900F911F91CF91DF9108959B01AC01D2
:1029700060E070E080E89FE30C94FC120C94BB11C3
:102980000C9481140E94EB11D8F39923C9F3940F8E
:10299000511DA3F39150504094F059F0882332F028
:1029A000660F771F881F91505040C1F79E3F510519
:1029B0002CF7880F911D9695879597F908955F3F9D
:1029C000ACF0983E9CF0BB27869577956795B795B8
:1029D00008F4B1609395C1F7BB0F58F711F460FF8D
:1029E000E8CF6F5F7F4F8F4F9F4FE3CF0C9406125E
:1029F000FA01DC01AA0FBB1F9B01AC01BF5728F4F1
:102A0000222733274427507820C0B75190F4AB2FAA
:102A10000024469537952795011CA395D2F30020F5
:102A200071F0220F331F441FB395DAF30ED00C94CC
:102A30008F1261307105A0E88A07B94630F49B0116
:102A4000AC016627772788279078309621F020837D
:102A50003183428353830895B7FF0C943E120E9442
:102A60003E12821B930B0895DF93CF931F930F9316
:102A70009A9DF02D219FF00D8B9DF00D8A9DE02DEC
:102A8000F10D039FF00D029FE00DF11D4E9DE00D35
:102A9000F11D5E9DF00D4F9DF00D7F936F93BF92E2
:102AA000AF925F934F93D5010E9480128B01AC01CE
:102AB000D7010E948012EB01E80FF91FD6010E9496
:102AC00084152F913F91D6010E948012C60FD71F07
:102AD000E81FF91FAF91BF910E9484152F913F917C
:102AE0000E948012C60FD71FE81FF91FD6010E944F
:102AF0008012E60FF71F9801BE01CF0111240F913C
:102B00001F91CF91DF9108950E948012460F571FA9
:102B1000C81FD91F08F431960895689401C0E8943D
:102B2000F92FF12B12F00C94C115A0E0B0E0EBE905
:102B3000F5E10C944F12092E059422F40E941D1603
:102B4000112392F4F0E80F26FFEFE094F094009543
:102B50001095B094C094D094A194BF0ACF0ADF0A14
:102B6000EF0AFF0A0F0B1F0B0E94CC1507FC0E94F7
:102B70001D16CDB7DEB7ECE00C946B12689401C063
:102B8000E8948F929F92CF93DF930E94CC15DF91B0
:102B9000CF919F908F90089588249924F401E401A7
:102BA000B0E49F93AA279A158B049C04ED05FE05BB
:102BB000CF05D007A10798F4AD2FDC2FCF2FFE2F24
:102BC000E92D982C892E982F872F762F652F542F3B
:102BD000432F322F2227B85031F7BF9127C01B2E29
:102BE000BF91BB27220F331F441F551F661F771F3E
:102BF000881F991F881C991CEE1FFF1FCC1FDD1F0B
:102C0000AA1FBB1F8A149B04EC05FD05CE05DF053A
:102C1000A007B10748F08A189B08EC09FD09CE0906
:102C2000DF09A00BB10B21601A94E1F62EF4940198
:102C3000AF01BE01CD01000C08956095709580959F
:102C4000909530954095509521953F4F4F4F5F4F50
:102C50006F4F7F4F8F4F9F4F08950F93083090F025
:102C6000982F872F762F652F542F432F322F22270F
:102C70000850F4CF220F331F441F551F661F771FC4
:102C8000881F991F0A95B2F70F91089597FB10F8C6
:102C9000169400080F93083098F00850232F342F13
:102CA000452F562F672F782F892F902DF4CF05941D
:102CB0009795879577956795579547953795279574
:102CC0000A95AAF70F9108952A0D3B1D4C1D5D1D15
:102CD0006E1D7F1D801F911F08952A193B094C0905
:102CE0005D096E097F09800B910B08950024A7FDF3
:102CF00000942A17300540055005600570058005D1
:102D000090050895EE0FFF1F0590F491E02D0994B2
:102D1000CF93DF938230910510F482E090E0E09150
:102D20002E04F0912F0420E030E0C0E0D0E0309796
:102D300011F14081518148175907C0F048175907D0
:102D400061F482819381209719F09B838A832BC041
:102D500090932F0480932E0426C02115310519F07D
:102D60004217530718F49A01BE01DF01EF010280F8
:102D7000F381E02DDCCF2115310509F1281B390B3A
:102D80002430310590F412968D919C911397611522
:102D9000710521F0FB019383828304C090932F047B
:102DA00080932E04FD01329644C0FD01E20FF31F13
:102DB00081939193225031092D933C933AC02091F5
:102DC0002C0430912D04232B41F4209102013091E9
:102DD000030130932D0420932C04209100013091A5
:102DE00001012115310541F42DB73EB74091040191
:102DF00050910501241B350BE0912C04F0912D041A
:102E0000E217F307A0F42E1B3F0B2817390778F0C1
:102E1000AC014E5F5F4F2417350748F04E0F5F1F20
:102E200050932D0440932C048193919302C0E0E0D1
:102E3000F0E0CF01DF91CF9108950F931F93CF93CF
:102E4000DF93009709F48CC0FC0132971382128241
:102E500000912E0410912F040115110581F4208199
:102E60003181820F931F20912C0430912D0428175B
:102E7000390779F5F0932D04E0932C0471C0D80143
:102E800040E050E0AE17BF0750F412962D913C91F0
:102E90001397AD012115310509F1D901F3CF9D013A
:102EA000DA013383228360817181860F971F821735
:102EB000930769F4EC0128813981260F371F2E5FB3
:102EC0003F4F318320838A819B8193838283452B6B
:102ED00029F4F0932F04E0932E0442C01396FC9340
:102EE000EE931297ED01499159919E01240F351FE0
:102EF000E217F30771F480819181840F951F029688
:102F000011969C938E938281938113969C938E93BA
:102F10001297E0E0F0E0D80112968D919C91139702
:102F2000009719F0F8018C01F6CF8D919C919801D2
:102F30002E5F3F4F820F931F20912C0430912D0460
:102F40002817390769F4309729F410922F0410924A
:102F50002E0402C01382128210932D0400932C04BD
:102F6000DF91CF911F910F910895A0E0B0E0EBEBBE
:102F7000F7E10C944D12EC01009721F4CB010E9473
:102F80008816B8C0FC01E60FF71F9C0122503109DA
:102F9000E217F30708F4ACC0D9010D911C91119709
:102FA00006171707B0F00530110508F49FC0C801D7
:102FB00004978617970708F499C002501109061B59
:102FC000170B019311936D937C93CF010E941D17F2
:102FD0008DC05B01A01AB10A4C01800E911EA09118
:102FE0002E04B0912F0440E050E0E12CF12C10971A
:102FF00009F44AC0A815B905D1F56D907C901197D8
:10300000630182E0C80ED11CCA14DB0480F1A30165
:103010004A195B096A0182E0C80ED11C1296BC9065
:1030200012971396AC91B5E0CB16D10440F0B28262
:10303000A38351834083D9016D937C930AC00E5FB3
:103040001F4FC301800F911FF90191838083EB2DE6
:10305000FA2FE114F10431F0D7011396FC93EE93AB
:10306000129744C0F0932F04E0932E043FC08D913B
:103070009C9111974817590708F4AC017D011296ED
:103080000D90BC91A02DB3CF80912C0490912D0474
:1030900088159905E1F446175707C8F48091000197
:1030A00090910101009741F48DB79EB740910401C2
:1030B00050910501841B950BE817F907C8F4F093AC
:1030C0002D04E0932C04F901718360830FC0CB01C0
:1030D0000E9488167C01009759F0A801BE010E9449
:1030E0008418CE010E941D17C70104C0CE0102C082
:1030F00080E090E0CDB7DEB7EEE00C94691281E09D
:1031000090E0F8940C949418FB01DC0102C001904B
:103110000D9241505040D8F70895FB01DC01019019
:0C3120000D920020E1F70895F894FFCF15
:10312C00000030048000000000002B013306C300B7
:10313C007201F400D200E600000000008303530388
:10314C00B3032F0349023F033003000000008B023E
:10315C004004B803564D4450565F317C315F564D98
:10316C004450560D0A00436F756C64206E6F7420CA
:10317C0066696E6420424D453238302073656E733B
:10318C006F722100466F756E6420424D45323830A7
:10319C002073656E736F722120537563636573734F
:1031AC002E00466F756E6420424D503238302073BD
:1031BC00656E736F7221204E6F2048756D6964695E
:1031CC00747920617661696C61626C652E00466F62
:1031DC00756E6420554E4B4E4F574E2073656E7373
:1031EC006F7221204572726F72210054656D703AB6
:1031FC0020004300C2B000090948756D6964697408
:10320C00793A2000252052480009095072657373E1
:10321C007572653A2000205061000909416C74698F
:10322C00747564653A20006D000909446577207057
:10323C006F696E743A200009094571756976616C85
:10324C00656E7420536561204C6576656C205072F8
:10325C006573737572653A200020685061006E6169
:0A326C006E00696E66006F76660062
:00000001FF
